{
  "contractName": "Bet",
  "abi": [
    {
      "inputs": [
        {
          "internalType": "string",
          "name": "_description",
          "type": "string"
        },
        {
          "internalType": "uint256",
          "name": "_votePrice",
          "type": "uint256"
        },
        {
          "internalType": "uint256",
          "name": "_waitingTime",
          "type": "uint256"
        },
        {
          "internalType": "uint256",
          "name": "_expirationTime",
          "type": "uint256"
        },
        {
          "internalType": "uint256",
          "name": "_minBetterCount",
          "type": "uint256"
        },
        {
          "internalType": "address payable",
          "name": "_taxAddress",
          "type": "address"
        }
      ],
      "stateMutability": "nonpayable",
      "type": "constructor"
    },
    {
      "anonymous": false,
      "inputs": [
        {
          "indexed": false,
          "internalType": "uint256",
          "name": "_bettersFor",
          "type": "uint256"
        },
        {
          "indexed": false,
          "internalType": "uint256",
          "name": "_bettersAgainst",
          "type": "uint256"
        },
        {
          "indexed": false,
          "internalType": "uint256",
          "name": "_votersFor",
          "type": "uint256"
        },
        {
          "indexed": false,
          "internalType": "uint256",
          "name": "_votersAgainst",
          "type": "uint256"
        }
      ],
      "name": "BetUpdate",
      "type": "event"
    },
    {
      "inputs": [],
      "name": "deployTime",
      "outputs": [
        {
          "internalType": "uint256",
          "name": "",
          "type": "uint256"
        }
      ],
      "stateMutability": "view",
      "type": "function"
    },
    {
      "inputs": [],
      "name": "description",
      "outputs": [
        {
          "internalType": "string",
          "name": "",
          "type": "string"
        }
      ],
      "stateMutability": "view",
      "type": "function"
    },
    {
      "inputs": [],
      "name": "expirationTime",
      "outputs": [
        {
          "internalType": "uint256",
          "name": "",
          "type": "uint256"
        }
      ],
      "stateMutability": "view",
      "type": "function"
    },
    {
      "inputs": [],
      "name": "minBetterCount",
      "outputs": [
        {
          "internalType": "uint256",
          "name": "",
          "type": "uint256"
        }
      ],
      "stateMutability": "view",
      "type": "function"
    },
    {
      "inputs": [],
      "name": "votePrice",
      "outputs": [
        {
          "internalType": "uint256",
          "name": "",
          "type": "uint256"
        }
      ],
      "stateMutability": "view",
      "type": "function"
    },
    {
      "inputs": [],
      "name": "votersAgainstCount",
      "outputs": [
        {
          "internalType": "uint256",
          "name": "",
          "type": "uint256"
        }
      ],
      "stateMutability": "view",
      "type": "function"
    },
    {
      "inputs": [],
      "name": "votersForCount",
      "outputs": [
        {
          "internalType": "uint256",
          "name": "",
          "type": "uint256"
        }
      ],
      "stateMutability": "view",
      "type": "function"
    },
    {
      "inputs": [],
      "name": "votersFromAgainstCount",
      "outputs": [
        {
          "internalType": "uint256",
          "name": "",
          "type": "uint256"
        }
      ],
      "stateMutability": "view",
      "type": "function"
    },
    {
      "inputs": [],
      "name": "votersFromForCount",
      "outputs": [
        {
          "internalType": "uint256",
          "name": "",
          "type": "uint256"
        }
      ],
      "stateMutability": "view",
      "type": "function"
    },
    {
      "inputs": [],
      "name": "waitingTime",
      "outputs": [
        {
          "internalType": "uint256",
          "name": "",
          "type": "uint256"
        }
      ],
      "stateMutability": "view",
      "type": "function"
    },
    {
      "inputs": [],
      "name": "getBettersForCount",
      "outputs": [
        {
          "internalType": "uint256",
          "name": "",
          "type": "uint256"
        }
      ],
      "stateMutability": "view",
      "type": "function"
    },
    {
      "inputs": [],
      "name": "getBettersAgainstCount",
      "outputs": [
        {
          "internalType": "uint256",
          "name": "",
          "type": "uint256"
        }
      ],
      "stateMutability": "view",
      "type": "function"
    },
    {
      "inputs": [],
      "name": "getState",
      "outputs": [
        {
          "internalType": "enum Bet.State",
          "name": "",
          "type": "uint8"
        }
      ],
      "stateMutability": "view",
      "type": "function"
    },
    {
      "inputs": [],
      "name": "getBalance",
      "outputs": [
        {
          "internalType": "uint256",
          "name": "",
          "type": "uint256"
        }
      ],
      "stateMutability": "view",
      "type": "function"
    },
    {
      "inputs": [
        {
          "internalType": "uint256",
          "name": "amount",
          "type": "uint256"
        }
      ],
      "name": "betFor",
      "outputs": [],
      "stateMutability": "payable",
      "type": "function"
    },
    {
      "inputs": [
        {
          "internalType": "uint256",
          "name": "amount",
          "type": "uint256"
        }
      ],
      "name": "betAgainst",
      "outputs": [],
      "stateMutability": "payable",
      "type": "function"
    },
    {
      "inputs": [],
      "name": "voteFor",
      "outputs": [],
      "stateMutability": "nonpayable",
      "type": "function"
    },
    {
      "inputs": [],
      "name": "voteAgainst",
      "outputs": [],
      "stateMutability": "nonpayable",
      "type": "function"
    },
    {
      "inputs": [],
      "name": "claim",
      "outputs": [],
      "stateMutability": "nonpayable",
      "type": "function"
    }
  ],
  "bytecode": "0x6080604052426000553480156200001557600080fd5b5060405162001ed938038062001ed983398181016040528101906200003b9190620003aa565b85600c908051906020019062000053929190620000bd565b5084600f8190555083600d8190555082600e819055508160108190555080600160006101000a81548173ffffffffffffffffffffffffffffffffffffffff021916908373ffffffffffffffffffffffffffffffffffffffff160217905550505050505050620004ca565b828054620000cb9062000494565b90600052602060002090601f016020900481019282620000ef57600085556200013b565b82601f106200010a57805160ff19168380011785556200013b565b828001600101855582156200013b579182015b828111156200013a5782518255916020019190600101906200011d565b5b5090506200014a91906200014e565b5090565b5b80821115620001695760008160009055506001016200014f565b5090565b6000604051905090565b600080fd5b600080fd5b600080fd5b600080fd5b6000601f19601f8301169050919050565b7f4e487b7100000000000000000000000000000000000000000000000000000000600052604160045260246000fd5b620001d6826200018b565b810181811067ffffffffffffffff82111715620001f857620001f76200019c565b5b80604052505050565b60006200020d6200016d565b90506200021b8282620001cb565b919050565b600067ffffffffffffffff8211156200023e576200023d6200019c565b5b62000249826200018b565b9050602081019050919050565b60005b838110156200027657808201518184015260208101905062000259565b8381111562000286576000848401525b50505050565b6000620002a36200029d8462000220565b62000201565b905082815260208101848484011115620002c257620002c162000186565b5b620002cf84828562000256565b509392505050565b600082601f830112620002ef57620002ee62000181565b5b8151620003018482602086016200028c565b91505092915050565b6000819050919050565b6200031f816200030a565b81146200032b57600080fd5b50565b6000815190506200033f8162000314565b92915050565b600073ffffffffffffffffffffffffffffffffffffffff82169050919050565b6000620003728262000345565b9050919050565b620003848162000365565b81146200039057600080fd5b50565b600081519050620003a48162000379565b92915050565b60008060008060008060c08789031215620003ca57620003c962000177565b5b600087015167ffffffffffffffff811115620003eb57620003ea6200017c565b5b620003f989828a01620002d7565b96505060206200040c89828a016200032e565b95505060406200041f89828a016200032e565b94505060606200043289828a016200032e565b93505060806200044589828a016200032e565b92505060a06200045889828a0162000393565b9150509295509295509295565b7f4e487b7100000000000000000000000000000000000000000000000000000000600052602260045260246000fd5b60006002820490506001821680620004ad57607f821691505b60208210811415620004c457620004c362000465565b5b50919050565b6119ff80620004da6000396000f3fe6080604052600436106101145760003560e01c8063aa13e8c2116100a0578063e071fc1f11610064578063e071fc1f1461034b578063ee177f8b14610367578063f82b91f414610392578063ff549cc2146103ae578063ffaa3608146103d957610114565b8063aa13e8c214610274578063b59988bf1461029f578063d03b13f5146102ca578063d9e2b73f146102f5578063da284dcc1461032057610114565b80637284e416116100e75780637284e416146101b15780637a40624b146101dc578063860c851a146102075780639958fc96146102325780639f396cff1461025d57610114565b806312065fe0146101195780631865c57d146101445780634e71d92d1461016f5780635193372e14610186575b600080fd5b34801561012557600080fd5b5061012e6103f0565b60405161013b91906115c8565b60405180910390f35b34801561015057600080fd5b506101596103f8565b604051610166919061165a565b60405180910390f35b34801561017b57600080fd5b50610184610489565b005b34801561019257600080fd5b5061019b610afd565b6040516101a891906115c8565b60405180910390f35b3480156101bd57600080fd5b506101c6610b0a565b6040516101d3919061170e565b60405180910390f35b3480156101e857600080fd5b506101f1610b98565b6040516101fe91906115c8565b60405180910390f35b34801561021357600080fd5b5061021c610b9e565b60405161022991906115c8565b60405180910390f35b34801561023e57600080fd5b50610247610ba4565b60405161025491906115c8565b60405180910390f35b34801561026957600080fd5b50610272610baa565b005b34801561028057600080fd5b50610289610e8d565b60405161029691906115c8565b60405180910390f35b3480156102ab57600080fd5b506102b4610e93565b6040516102c191906115c8565b60405180910390f35b3480156102d657600080fd5b506102df610e99565b6040516102ec91906115c8565b60405180910390f35b34801561030157600080fd5b5061030a610ea6565b60405161031791906115c8565b60405180910390f35b34801561032c57600080fd5b50610335610eac565b60405161034291906115c8565b60405180910390f35b61036560048036038101906103609190611761565b610eb2565b005b34801561037357600080fd5b5061037c6110b9565b60405161038991906115c8565b60405180910390f35b6103ac60048036038101906103a79190611761565b6110bf565b005b3480156103ba57600080fd5b506103c36112c6565b6040516103d091906115c8565b60405180910390f35b3480156103e557600080fd5b506103ee6112cc565b005b600047905090565b6000806000544261040991906117bd565b9050600d5481101561041f576000915050610486565b600d5481101580156104325750600e5481105b15610441576001915050610486565b600e54811061048057600b54600a541115610460576002915050610486565b600b54600a541015610476576003915050610486565b6004915050610486565b60049150505b90565b6000471161049657600080fd5b60006104a06103f8565b9050600260048111156104b6576104b56115e3565b5b8160048111156104c9576104c86115e3565b5b14806104f95750600360048111156104e4576104e36115e3565b5b8160048111156104f7576104f66115e3565b5b145b806105275750600480811115610512576105116115e3565b5b816004811115610525576105246115e3565b5b145b61053057600080fd5b600480811115610543576105426115e3565b5b816004811115610556576105556115e3565b5b14156107205760005b60028054905081101561060657600281815481106105805761057f6117f1565b5b9060005260206000200160009054906101000a900473ffffffffffffffffffffffffffffffffffffffff1673ffffffffffffffffffffffffffffffffffffffff166108fc600f549081150290604051600060405180830381858888f193505050501580156105f2573d6000803e3d6000fd5b5080806105fe90611820565b91505061055f565b5060005b6004805490508110156106b1576004818154811061062b5761062a6117f1565b5b9060005260206000200160009054906101000a900473ffffffffffffffffffffffffffffffffffffffff1673ffffffffffffffffffffffffffffffffffffffff166108fc600f549081150290604051600060405180830381858888f1935050505015801561069d573d6000803e3d6000fd5b5080806106a990611820565b91505061060a565b50600160009054906101000a900473ffffffffffffffffffffffffffffffffffffffff1673ffffffffffffffffffffffffffffffffffffffff166108fc479081150290604051600060405180830381858888f1935050505015801561071a573d6000803e3d6000fd5b50610afa565b60026004811115610734576107336115e3565b5b816004811115610747576107466115e3565b5b141561090e57600160009054906101000a900473ffffffffffffffffffffffffffffffffffffffff1673ffffffffffffffffffffffffffffffffffffffff166108fc6103e8600a6fffffffffffffffffffffffffffffffff16476107ab9190611869565b6107b591906118f2565b9081150290604051600060405180830381858888f193505050501580156107e0573d6000803e3d6000fd5b506000600280549050476107f491906118f2565b905060005b60028054905081101561089e576002818154811061081a576108196117f1565b5b9060005260206000200160009054906101000a900473ffffffffffffffffffffffffffffffffffffffff1673ffffffffffffffffffffffffffffffffffffffff166108fc839081150290604051600060405180830381858888f1935050505015801561088a573d6000803e3d6000fd5b50808061089690611820565b9150506107f9565b50600160009054906101000a900473ffffffffffffffffffffffffffffffffffffffff1673ffffffffffffffffffffffffffffffffffffffff166108fc479081150290604051600060405180830381858888f19350505050158015610907573d6000803e3d6000fd5b5050610af9565b60036004811115610922576109216115e3565b5b816004811115610935576109346115e3565b5b1415610af857600160009054906101000a900473ffffffffffffffffffffffffffffffffffffffff1673ffffffffffffffffffffffffffffffffffffffff166108fc6103e8600a6fffffffffffffffffffffffffffffffff16476109999190611869565b6109a391906118f2565b9081150290604051600060405180830381858888f193505050501580156109ce573d6000803e3d6000fd5b506000600480549050476109e291906118f2565b905060005b600480549050811015610a8c5760048181548110610a0857610a076117f1565b5b9060005260206000200160009054906101000a900473ffffffffffffffffffffffffffffffffffffffff1673ffffffffffffffffffffffffffffffffffffffff166108fc839081150290604051600060405180830381858888f19350505050158015610a78573d6000803e3d6000fd5b508080610a8490611820565b9150506109e7565b50600160009054906101000a900473ffffffffffffffffffffffffffffffffffffffff1673ffffffffffffffffffffffffffffffffffffffff166108fc479081150290604051600060405180830381858888f19350505050158015610af5573d6000803e3d6000fd5b50505b5b5b50565b6000600480549050905090565b600c8054610b1790611952565b80601f0160208091040260200160405190810160405280929190818152602001828054610b4390611952565b8015610b905780601f10610b6557610100808354040283529160200191610b90565b820191906000526020600020905b815481529060010190602001808311610b7357829003601f168201915b505050505081565b60005481565b600f5481565b600a5481565b600360003373ffffffffffffffffffffffffffffffffffffffff1673ffffffffffffffffffffffffffffffffffffffff16815260200190815260200160002060009054906101000a900460ff1680610c4b5750600560003373ffffffffffffffffffffffffffffffffffffffff1673ffffffffffffffffffffffffffffffffffffffff16815260200190815260200160002060009054906101000a900460ff165b8015610ca15750600660003373ffffffffffffffffffffffffffffffffffffffff1673ffffffffffffffffffffffffffffffffffffffff16815260200190815260200160002060009054906101000a900460ff16155b610caa57600080fd5b60016004811115610cbe57610cbd6115e3565b5b610cc66103f8565b6004811115610cd857610cd76115e3565b5b14610ce257600080fd5b6001600660003373ffffffffffffffffffffffffffffffffffffffff1673ffffffffffffffffffffffffffffffffffffffff16815260200190815260200160002060006101000a81548160ff02191690831515021790555060076000815480929190610d4d90611820565b9190505550600360003373ffffffffffffffffffffffffffffffffffffffff1673ffffffffffffffffffffffffffffffffffffffff16815260200190815260200160002060009054906101000a900460ff1615610dbd5760086000815480929190610db790611820565b91905055505b600560003373ffffffffffffffffffffffffffffffffffffffff1673ffffffffffffffffffffffffffffffffffffffff16815260200190815260200160002060009054906101000a900460ff1615610e285760096000815480929190610e2290611820565b91905055505b600b6000815480929190610e3b90611820565b91905055507fde51fb9043f707b6b8a48720a9d358135b5f6bdb4549ce5817cb7fed82c68ab7600280549050600480549050600a54600b54604051610e839493929190611984565b60405180910390a1565b600d5481565b60105481565b6000600280549050905090565b60095481565b600e5481565b8034148015610ec25750600f5434145b610ecb57600080fd5b60006004811115610edf57610ede6115e3565b5b610ee76103f8565b6004811115610ef957610ef86115e3565b5b14610f0357600080fd5b600360003373ffffffffffffffffffffffffffffffffffffffff1673ffffffffffffffffffffffffffffffffffffffff16815260200190815260200160002060009054906101000a900460ff16158015610fa75750600560003373ffffffffffffffffffffffffffffffffffffffff1673ffffffffffffffffffffffffffffffffffffffff16815260200190815260200160002060009054906101000a900460ff16155b610fb057600080fd5b6001600360003373ffffffffffffffffffffffffffffffffffffffff1673ffffffffffffffffffffffffffffffffffffffff16815260200190815260200160002060006101000a81548160ff0219169083151502179055506002339080600181540180825580915050600190039060005260206000200160009091909190916101000a81548173ffffffffffffffffffffffffffffffffffffffff021916908373ffffffffffffffffffffffffffffffffffffffff1602179055507fde51fb9043f707b6b8a48720a9d358135b5f6bdb4549ce5817cb7fed82c68ab7600280549050600480549050600a54600b546040516110ae9493929190611984565b60405180910390a150565b600b5481565b80341480156110cf5750600f5434145b6110d857600080fd5b600060048111156110ec576110eb6115e3565b5b6110f46103f8565b6004811115611106576111056115e3565b5b1461111057600080fd5b600360003373ffffffffffffffffffffffffffffffffffffffff1673ffffffffffffffffffffffffffffffffffffffff16815260200190815260200160002060009054906101000a900460ff161580156111b45750600560003373ffffffffffffffffffffffffffffffffffffffff1673ffffffffffffffffffffffffffffffffffffffff16815260200190815260200160002060009054906101000a900460ff16155b6111bd57600080fd5b6001600560003373ffffffffffffffffffffffffffffffffffffffff1673ffffffffffffffffffffffffffffffffffffffff16815260200190815260200160002060006101000a81548160ff0219169083151502179055506004339080600181540180825580915050600190039060005260206000200160009091909190916101000a81548173ffffffffffffffffffffffffffffffffffffffff021916908373ffffffffffffffffffffffffffffffffffffffff1602179055507fde51fb9043f707b6b8a48720a9d358135b5f6bdb4549ce5817cb7fed82c68ab7600280549050600480549050600a54600b546040516112bb9493929190611984565b60405180910390a150565b60085481565b600360003373ffffffffffffffffffffffffffffffffffffffff1673ffffffffffffffffffffffffffffffffffffffff16815260200190815260200160002060009054906101000a900460ff168061136d5750600560003373ffffffffffffffffffffffffffffffffffffffff1673ffffffffffffffffffffffffffffffffffffffff16815260200190815260200160002060009054906101000a900460ff165b80156113c35750600660003373ffffffffffffffffffffffffffffffffffffffff1673ffffffffffffffffffffffffffffffffffffffff16815260200190815260200160002060009054906101000a900460ff16155b6113cc57600080fd5b600160048111156113e0576113df6115e3565b5b6113e86103f8565b60048111156113fa576113f96115e3565b5b1461140457600080fd5b6001600660003373ffffffffffffffffffffffffffffffffffffffff1673ffffffffffffffffffffffffffffffffffffffff16815260200190815260200160002060006101000a81548160ff0219169083151502179055506007600081548092919061146f90611820565b9190505550600360003373ffffffffffffffffffffffffffffffffffffffff1673ffffffffffffffffffffffffffffffffffffffff16815260200190815260200160002060009054906101000a900460ff16156114df57600860008154809291906114d990611820565b91905055505b600560003373ffffffffffffffffffffffffffffffffffffffff1673ffffffffffffffffffffffffffffffffffffffff16815260200190815260200160002060009054906101000a900460ff161561154a576009600081548092919061154490611820565b91905055505b600a600081548092919061155d90611820565b91905055507fde51fb9043f707b6b8a48720a9d358135b5f6bdb4549ce5817cb7fed82c68ab7600280549050600480549050600a54600b546040516115a59493929190611984565b60405180910390a1565b6000819050919050565b6115c2816115af565b82525050565b60006020820190506115dd60008301846115b9565b92915050565b7f4e487b7100000000000000000000000000000000000000000000000000000000600052602160045260246000fd5b60058110611623576116226115e3565b5b50565b600081905061163482611612565b919050565b600061164482611626565b9050919050565b61165481611639565b82525050565b600060208201905061166f600083018461164b565b92915050565b600081519050919050565b600082825260208201905092915050565b60005b838110156116af578082015181840152602081019050611694565b838111156116be576000848401525b50505050565b6000601f19601f8301169050919050565b60006116e082611675565b6116ea8185611680565b93506116fa818560208601611691565b611703816116c4565b840191505092915050565b6000602082019050818103600083015261172881846116d5565b905092915050565b600080fd5b61173e816115af565b811461174957600080fd5b50565b60008135905061175b81611735565b92915050565b60006020828403121561177757611776611730565b5b60006117858482850161174c565b91505092915050565b7f4e487b7100000000000000000000000000000000000000000000000000000000600052601160045260246000fd5b60006117c8826115af565b91506117d3836115af565b9250828210156117e6576117e561178e565b5b828203905092915050565b7f4e487b7100000000000000000000000000000000000000000000000000000000600052603260045260246000fd5b600061182b826115af565b91507fffffffffffffffffffffffffffffffffffffffffffffffffffffffffffffffff82141561185e5761185d61178e565b5b600182019050919050565b6000611874826115af565b915061187f836115af565b9250817fffffffffffffffffffffffffffffffffffffffffffffffffffffffffffffffff04831182151516156118b8576118b761178e565b5b828202905092915050565b7f4e487b7100000000000000000000000000000000000000000000000000000000600052601260045260246000fd5b60006118fd826115af565b9150611908836115af565b925082611918576119176118c3565b5b828204905092915050565b7f4e487b7100000000000000000000000000000000000000000000000000000000600052602260045260246000fd5b6000600282049050600182168061196a57607f821691505b6020821081141561197e5761197d611923565b5b50919050565b600060808201905061199960008301876115b9565b6119a660208301866115b9565b6119b360408301856115b9565b6119c060608301846115b9565b9594505050505056fea26469706673582212200c7f3e612a77d3b7b4a66b919a4a674593086d482fc66800034e355dc0753e4c64736f6c634300080a0033",
  "immutableReferences": {},
  "source": "pragma solidity 0.8.10;\r\n\r\ncontract Bets{\r\n    address[] public bets;\r\n\r\n    address payable public owner;\r\n\r\n    constructor() public payable {\r\n        owner = payable(msg.sender);\r\n    }\r\n\r\n    function createBet(string memory description, uint256 votePrice, uint256 waitingTime, uint256 expirationTime, uint256 minBetterCount) public returns (address) {\r\n        Bet bet = new Bet(description, votePrice, waitingTime, expirationTime, minBetterCount, owner);\r\n        bets.push(address(bet));\r\n        return address(bet);\r\n    }\r\n\r\n    function getBetsCount() external view returns (uint256) {\r\n        return bets.length;\r\n    }\r\n}\r\n\r\ncontract Bet {\r\n    uint256 public deployTime = block.timestamp;\r\n    \r\n    enum State { Initiated, Pending, ForWon, AgainstWon, Aborted } //Bet states\r\n\r\n    address payable private taxAddress;\r\n    uint128 constant tax = 10;\r\n    \r\n    address payable[] private bettersForAddresses;\r\n    mapping (address => bool) private bettersFor;\r\n    function getBettersForCount() external view returns (uint256) {\r\n        return bettersForAddresses.length;\r\n    }\r\n    \r\n    address payable[] private bettersAgainstAddresses;\r\n    mapping (address => bool) private bettersAgainst;\r\n    function getBettersAgainstCount() external view returns (uint256) {\r\n         return bettersAgainstAddresses.length;\r\n    }\r\n\r\n    mapping (address => bool) outcomeVoters;\r\n    uint256 outcomeVotersCount;\r\n\r\n    uint256 public votersFromForCount;\r\n    uint256 public votersFromAgainstCount;\r\n    uint256 public votersForCount;\r\n    uint256 public votersAgainstCount;\r\n\r\n    string public description;\r\n    uint256 public waitingTime;\r\n    uint256 public expirationTime;\r\n    uint256 public votePrice;\r\n    uint256 public minBetterCount;\r\n    \r\n    event BetUpdate (\r\n        uint256 _bettersFor,\r\n        uint256 _bettersAgainst,\r\n        uint256 _votersFor,\r\n        uint256 _votersAgainst\r\n    );\r\n    \r\n    constructor(string memory _description, uint256 _votePrice, uint256 _waitingTime, uint256 _expirationTime, uint256 _minBetterCount, address payable _taxAddress) public {\r\n        description = _description;\r\n        votePrice = _votePrice;\r\n        waitingTime = _waitingTime;\r\n        expirationTime = _expirationTime;\r\n        minBetterCount = _minBetterCount;\r\n        taxAddress = _taxAddress;\r\n    }\r\n\r\n    function getState() public view returns (State){\r\n        uint256 timePassed = block.timestamp - deployTime;\r\n\r\n        if(timePassed < waitingTime){\r\n            return State.Initiated;\r\n        }\r\n        else if(timePassed >= waitingTime && timePassed < expirationTime){\r\n            return State.Pending;\r\n        }\r\n        else if(timePassed >= expirationTime){\r\n            if(votersForCount > votersAgainstCount){\r\n                return State.ForWon;\r\n            }\r\n            else if(votersForCount < votersAgainstCount){\r\n                return State.AgainstWon;\r\n            }\r\n            else{\r\n                return State.Aborted;\r\n            }\r\n        }\r\n        else{\r\n            return State.Aborted;\r\n        }\r\n    }\r\n\r\n    function getBalance() external view returns(uint256) {\r\n        return address(this).balance;\r\n    }\r\n\r\n    function betFor(uint256 amount) payable public {\r\n        require(msg.value == amount && msg.value == votePrice);\r\n        require(getState() == State.Initiated);\r\n        require(!bettersFor[msg.sender] && !bettersAgainst[msg.sender]);\r\n        bettersFor[msg.sender] = true;\r\n        bettersForAddresses.push(payable(msg.sender));\r\n        emit BetUpdate(bettersForAddresses.length, bettersAgainstAddresses.length, votersForCount, votersAgainstCount);\r\n    }\r\n\r\n    function betAgainst(uint256 amount) payable public {\r\n        require(msg.value == amount && msg.value == votePrice);\r\n        require(getState() == State.Initiated);\r\n        require(!bettersFor[msg.sender] && !bettersAgainst[msg.sender]);\r\n        bettersAgainst[msg.sender] = true;\r\n        bettersAgainstAddresses.push(payable(msg.sender));\r\n        emit BetUpdate(bettersForAddresses.length, bettersAgainstAddresses.length, votersForCount, votersAgainstCount);\r\n    }\r\n\r\n    function voteFor() public {\r\n        require((bettersFor[msg.sender] || bettersAgainst[msg.sender]) && !outcomeVoters[msg.sender]);\r\n        require(getState() == State.Pending);\r\n        outcomeVoters[msg.sender] = true;\r\n        outcomeVotersCount++;\r\n        if (bettersFor[msg.sender]) votersFromForCount++;\r\n        if (bettersAgainst[msg.sender]) votersFromAgainstCount++;\r\n        votersForCount++;\r\n        emit BetUpdate(bettersForAddresses.length, bettersAgainstAddresses.length, votersForCount, votersAgainstCount);\r\n    }\r\n    \r\n    function voteAgainst() public {\r\n        require((bettersFor[msg.sender] || bettersAgainst[msg.sender]) && !outcomeVoters[msg.sender]);\r\n        require(getState() == State.Pending);\r\n        outcomeVoters[msg.sender] = true;\r\n        outcomeVotersCount++;\r\n        if (bettersFor[msg.sender]) votersFromForCount++;\r\n        if (bettersAgainst[msg.sender]) votersFromAgainstCount++;\r\n        votersAgainstCount++;\r\n        emit BetUpdate(bettersForAddresses.length, bettersAgainstAddresses.length, votersForCount, votersAgainstCount);\r\n    }\r\n\r\n    function claim() public {\r\n        require(address(this).balance > 0);\r\n        State state = getState();\r\n        require (state == State.ForWon || state == State.AgainstWon || state == State.Aborted);\r\n        if (state == State.Aborted) {\r\n            for (uint256 i = 0; i < bettersForAddresses.length; i++) {\r\n                bettersForAddresses[i].transfer(votePrice);\r\n            }\r\n            for (uint256 i = 0; i < bettersAgainstAddresses.length; i++) {\r\n                bettersAgainstAddresses[i].transfer(votePrice);\r\n            }\r\n            taxAddress.transfer(address(this).balance);\r\n        }\r\n        else if (state == State.ForWon) {\r\n            taxAddress.transfer(address(this).balance * tax / 1000);\r\n            uint256 reward = address(this).balance / bettersForAddresses.length;\r\n            for (uint256 i = 0; i < bettersForAddresses.length; i++) {\r\n                bettersForAddresses[i].transfer(reward);\r\n            }\r\n            taxAddress.transfer(address(this).balance);\r\n        }\r\n        else if (state == State.AgainstWon) {\r\n            taxAddress.transfer(address(this).balance * tax / 1000);\r\n            uint256 reward = address(this).balance / bettersAgainstAddresses.length;\r\n            for (uint256 i = 0; i < bettersAgainstAddresses.length; i++) {\r\n                bettersAgainstAddresses[i].transfer(reward);\r\n            }\r\n            taxAddress.transfer(address(this).balance);\r\n        }\r\n    }\r\n\r\n}\r\n\r\n",
  "sourcePath": "C:\\Users\\PC\\Documents\\University\\3 semestras\\Blockchain\\Smart-contract\\contracts\\Bets.sol",
  "compiler": {
    "name": "solc",
    "version": "0.8.10+commit.fc410830.Emscripten.clang"
  },
  "schemaVersion": "3.4.3",
  "updatedAt": "2021-12-14T20:23:22.310Z",
  "devdoc": {
    "kind": "dev",
    "methods": {},
    "version": 1
  },
  "userdoc": {
    "kind": "user",
    "methods": {},
    "version": 1
  }
}