{
  "contractName": "Bets",
  "abi": [
    {
      "inputs": [],
      "stateMutability": "payable",
      "type": "constructor",
      "payable": true
    },
    {
      "inputs": [
        {
          "internalType": "uint256",
          "name": "",
          "type": "uint256"
        }
      ],
      "name": "bets",
      "outputs": [
        {
          "internalType": "address",
          "name": "",
          "type": "address"
        }
      ],
      "stateMutability": "view",
      "type": "function",
      "constant": true
    },
    {
      "inputs": [],
      "name": "owner",
      "outputs": [
        {
          "internalType": "address payable",
          "name": "",
          "type": "address"
        }
      ],
      "stateMutability": "view",
      "type": "function",
      "constant": true
    },
    {
      "inputs": [
        {
          "internalType": "string",
          "name": "description",
          "type": "string"
        },
        {
          "internalType": "uint256",
          "name": "votePrice",
          "type": "uint256"
        },
        {
          "internalType": "uint256",
          "name": "waitingTime",
          "type": "uint256"
        },
        {
          "internalType": "uint256",
          "name": "expirationTime",
          "type": "uint256"
        },
        {
          "internalType": "uint256",
          "name": "minBetterCount",
          "type": "uint256"
        }
      ],
      "name": "createBet",
      "outputs": [
        {
          "internalType": "address",
          "name": "",
          "type": "address"
        }
      ],
      "stateMutability": "nonpayable",
      "type": "function"
    },
    {
      "inputs": [],
      "name": "getBetsCount",
      "outputs": [
        {
          "internalType": "uint256",
          "name": "",
          "type": "uint256"
        }
      ],
      "stateMutability": "view",
      "type": "function",
      "constant": true
    }
  ],
  "bytecode": "0x608060405233600160006101000a81548173ffffffffffffffffffffffffffffffffffffffff021916908373ffffffffffffffffffffffffffffffffffffffff1602179055506117c3806100546000396000f3fe60806040523480156200001157600080fd5b5060043610620000525760003560e01c80631f796b57146200005757806322af00fa146200008d5780638c7e347a14620000c35780638da5cb5b14620000e5575b600080fd5b6200007560048036038101906200006f919062000412565b62000107565b604051620000849190620004fe565b60405180910390f35b620000ab6004803603810190620000a591906200051b565b620001e1565b604051620000ba9190620004fe565b60405180910390f35b620000cd62000221565b604051620000dc91906200055e565b60405180910390f35b620000ef6200022d565b604051620000fe9190620005a0565b60405180910390f35b6000808686868686600160009054906101000a900473ffffffffffffffffffffffffffffffffffffffff16604051620001409062000253565b620001519695949392919062000650565b604051809103906000f0801580156200016e573d6000803e3d6000fd5b5090506000819080600181540180825580915050600190039060005260206000200160009091909190916101000a81548173ffffffffffffffffffffffffffffffffffffffff021916908373ffffffffffffffffffffffffffffffffffffffff1602179055508091505095945050505050565b60008181548110620001f257600080fd5b906000526020600020016000915054906101000a900473ffffffffffffffffffffffffffffffffffffffff1681565b60008080549050905090565b600160009054906101000a900473ffffffffffffffffffffffffffffffffffffffff1681565b6110c980620006c583390190565b6000604051905090565b600080fd5b600080fd5b600080fd5b600080fd5b6000601f19601f8301169050919050565b7f4e487b7100000000000000000000000000000000000000000000000000000000600052604160045260246000fd5b620002ca826200027f565b810181811067ffffffffffffffff82111715620002ec57620002eb62000290565b5b80604052505050565b60006200030162000261565b90506200030f8282620002bf565b919050565b600067ffffffffffffffff82111562000332576200033162000290565b5b6200033d826200027f565b9050602081019050919050565b82818337600083830152505050565b6000620003706200036a8462000314565b620002f5565b9050828152602081018484840111156200038f576200038e6200027a565b5b6200039c8482856200034a565b509392505050565b600082601f830112620003bc57620003bb62000275565b5b8135620003ce84826020860162000359565b91505092915050565b6000819050919050565b620003ec81620003d7565b8114620003f857600080fd5b50565b6000813590506200040c81620003e1565b92915050565b600080600080600060a086880312156200043157620004306200026b565b5b600086013567ffffffffffffffff81111562000452576200045162000270565b5b6200046088828901620003a4565b95505060206200047388828901620003fb565b94505060406200048688828901620003fb565b93505060606200049988828901620003fb565b9250506080620004ac88828901620003fb565b9150509295509295909350565b600073ffffffffffffffffffffffffffffffffffffffff82169050919050565b6000620004e682620004b9565b9050919050565b620004f881620004d9565b82525050565b6000602082019050620005156000830184620004ed565b92915050565b6000602082840312156200053457620005336200026b565b5b60006200054484828501620003fb565b91505092915050565b6200055881620003d7565b82525050565b60006020820190506200057560008301846200054d565b92915050565b60006200058882620004b9565b9050919050565b6200059a816200057b565b82525050565b6000602082019050620005b760008301846200058f565b92915050565b600081519050919050565b600082825260208201905092915050565b60005b83811015620005f9578082015181840152602081019050620005dc565b8381111562000609576000848401525b50505050565b60006200061c82620005bd565b620006288185620005c8565b93506200063a818560208601620005d9565b62000645816200027f565b840191505092915050565b600060c08201905081810360008301526200066c81896200060f565b90506200067d60208301886200054d565b6200068c60408301876200054d565b6200069b60608301866200054d565b620006aa60808301856200054d565b620006b960a08301846200058f565b97965050505050505056fe6080604052426000553480156200001557600080fd5b50604051620010c9380380620010c983398181016040528101906200003b9190620003aa565b85600c908051906020019062000053929190620000bd565b5084600f8190555083600d8190555082600e819055508160108190555080600160006101000a81548173ffffffffffffffffffffffffffffffffffffffff021916908373ffffffffffffffffffffffffffffffffffffffff160217905550505050505050620004ca565b828054620000cb9062000494565b90600052602060002090601f016020900481019282620000ef57600085556200013b565b82601f106200010a57805160ff19168380011785556200013b565b828001600101855582156200013b579182015b828111156200013a5782518255916020019190600101906200011d565b5b5090506200014a91906200014e565b5090565b5b80821115620001695760008160009055506001016200014f565b5090565b6000604051905090565b600080fd5b600080fd5b600080fd5b600080fd5b6000601f19601f8301169050919050565b7f4e487b7100000000000000000000000000000000000000000000000000000000600052604160045260246000fd5b620001d6826200018b565b810181811067ffffffffffffffff82111715620001f857620001f76200019c565b5b80604052505050565b60006200020d6200016d565b90506200021b8282620001cb565b919050565b600067ffffffffffffffff8211156200023e576200023d6200019c565b5b62000249826200018b565b9050602081019050919050565b60005b838110156200027657808201518184015260208101905062000259565b8381111562000286576000848401525b50505050565b6000620002a36200029d8462000220565b62000201565b905082815260208101848484011115620002c257620002c162000186565b5b620002cf84828562000256565b509392505050565b600082601f830112620002ef57620002ee62000181565b5b8151620003018482602086016200028c565b91505092915050565b6000819050919050565b6200031f816200030a565b81146200032b57600080fd5b50565b6000815190506200033f8162000314565b92915050565b600073ffffffffffffffffffffffffffffffffffffffff82169050919050565b6000620003728262000345565b9050919050565b620003848162000365565b81146200039057600080fd5b50565b600081519050620003a48162000379565b92915050565b60008060008060008060c08789031215620003ca57620003c962000177565b5b600087015167ffffffffffffffff811115620003eb57620003ea6200017c565b5b620003f989828a01620002d7565b96505060206200040c89828a016200032e565b95505060406200041f89828a016200032e565b94505060606200043289828a016200032e565b93505060806200044589828a016200032e565b92505060a06200045889828a0162000393565b9150509295509295509295565b7f4e487b7100000000000000000000000000000000000000000000000000000000600052602260045260246000fd5b60006002820490506001821680620004ad57607f821691505b60208210811415620004c457620004c362000465565b5b50919050565b610bef80620004da6000396000f3fe6080604052600436106100e85760003560e01c8063b59988bf1161008a578063e071fc1f11610059578063e071fc1f146102c6578063ee177f8b146102e2578063f82b91f41461030d578063ff549cc214610329576100e8565b8063b59988bf1461021a578063d03b13f514610245578063d9e2b73f14610270578063da284dcc1461029b576100e8565b80637a40624b116100c65780637a40624b1461016e578063860c851a146101995780639958fc96146101c4578063aa13e8c2146101ef576100e8565b80631865c57d146100ed5780635193372e146101185780637284e41614610143575b600080fd5b3480156100f957600080fd5b50610102610354565b60405161010f9190610948565b60405180910390f35b34801561012457600080fd5b5061012d6103e5565b60405161013a919061097c565b60405180910390f35b34801561014f57600080fd5b506101586103f2565b6040516101659190610a30565b60405180910390f35b34801561017a57600080fd5b50610183610480565b604051610190919061097c565b60405180910390f35b3480156101a557600080fd5b506101ae610486565b6040516101bb919061097c565b60405180910390f35b3480156101d057600080fd5b506101d961048c565b6040516101e6919061097c565b60405180910390f35b3480156101fb57600080fd5b50610204610492565b604051610211919061097c565b60405180910390f35b34801561022657600080fd5b5061022f610498565b60405161023c919061097c565b60405180910390f35b34801561025157600080fd5b5061025a61049e565b604051610267919061097c565b60405180910390f35b34801561027c57600080fd5b506102856104ab565b604051610292919061097c565b60405180910390f35b3480156102a757600080fd5b506102b06104b1565b6040516102bd919061097c565b60405180910390f35b6102e060048036038101906102db9190610a83565b6104b7565b005b3480156102ee57600080fd5b506102f76106be565b604051610304919061097c565b60405180910390f35b61032760048036038101906103229190610a83565b6106c4565b005b34801561033557600080fd5b5061033e6108cb565b60405161034b919061097c565b60405180910390f35b600080600054426103659190610adf565b9050600d5481101561037b5760009150506103e2565b600d54811015801561038e5750600e5481105b1561039d5760019150506103e2565b600e5481106103dc57600b54600a5411156103bc5760029150506103e2565b600b54600a5410156103d25760039150506103e2565b60049150506103e2565b60049150505b90565b6000600480549050905090565b600c80546103ff90610b42565b80601f016020809104026020016040519081016040528092919081815260200182805461042b90610b42565b80156104785780601f1061044d57610100808354040283529160200191610478565b820191906000526020600020905b81548152906001019060200180831161045b57829003601f168201915b505050505081565b60005481565b600f5481565b600a5481565b600d5481565b60105481565b6000600280549050905090565b60095481565b600e5481565b80341480156104c75750600f5434145b6104d057600080fd5b600060048111156104e4576104e36108d1565b5b6104ec610354565b60048111156104fe576104fd6108d1565b5b1461050857600080fd5b600360003373ffffffffffffffffffffffffffffffffffffffff1673ffffffffffffffffffffffffffffffffffffffff16815260200190815260200160002060009054906101000a900460ff161580156105ac5750600560003373ffffffffffffffffffffffffffffffffffffffff1673ffffffffffffffffffffffffffffffffffffffff16815260200190815260200160002060009054906101000a900460ff16155b6105b557600080fd5b6001600360003373ffffffffffffffffffffffffffffffffffffffff1673ffffffffffffffffffffffffffffffffffffffff16815260200190815260200160002060006101000a81548160ff0219169083151502179055506002339080600181540180825580915050600190039060005260206000200160009091909190916101000a81548173ffffffffffffffffffffffffffffffffffffffff021916908373ffffffffffffffffffffffffffffffffffffffff1602179055507fde51fb9043f707b6b8a48720a9d358135b5f6bdb4549ce5817cb7fed82c68ab7600280549050600480549050600a54600b546040516106b39493929190610b74565b60405180910390a150565b600b5481565b80341480156106d45750600f5434145b6106dd57600080fd5b600060048111156106f1576106f06108d1565b5b6106f9610354565b600481111561070b5761070a6108d1565b5b1461071557600080fd5b600360003373ffffffffffffffffffffffffffffffffffffffff1673ffffffffffffffffffffffffffffffffffffffff16815260200190815260200160002060009054906101000a900460ff161580156107b95750600560003373ffffffffffffffffffffffffffffffffffffffff1673ffffffffffffffffffffffffffffffffffffffff16815260200190815260200160002060009054906101000a900460ff16155b6107c257600080fd5b6001600560003373ffffffffffffffffffffffffffffffffffffffff1673ffffffffffffffffffffffffffffffffffffffff16815260200190815260200160002060006101000a81548160ff0219169083151502179055506004339080600181540180825580915050600190039060005260206000200160009091909190916101000a81548173ffffffffffffffffffffffffffffffffffffffff021916908373ffffffffffffffffffffffffffffffffffffffff1602179055507fde51fb9043f707b6b8a48720a9d358135b5f6bdb4549ce5817cb7fed82c68ab7600280549050600480549050600a54600b546040516108c09493929190610b74565b60405180910390a150565b60085481565b7f4e487b7100000000000000000000000000000000000000000000000000000000600052602160045260246000fd5b60058110610911576109106108d1565b5b50565b600081905061092282610900565b919050565b600061093282610914565b9050919050565b61094281610927565b82525050565b600060208201905061095d6000830184610939565b92915050565b6000819050919050565b61097681610963565b82525050565b6000602082019050610991600083018461096d565b92915050565b600081519050919050565b600082825260208201905092915050565b60005b838110156109d15780820151818401526020810190506109b6565b838111156109e0576000848401525b50505050565b6000601f19601f8301169050919050565b6000610a0282610997565b610a0c81856109a2565b9350610a1c8185602086016109b3565b610a25816109e6565b840191505092915050565b60006020820190508181036000830152610a4a81846109f7565b905092915050565b600080fd5b610a6081610963565b8114610a6b57600080fd5b50565b600081359050610a7d81610a57565b92915050565b600060208284031215610a9957610a98610a52565b5b6000610aa784828501610a6e565b91505092915050565b7f4e487b7100000000000000000000000000000000000000000000000000000000600052601160045260246000fd5b6000610aea82610963565b9150610af583610963565b925082821015610b0857610b07610ab0565b5b828203905092915050565b7f4e487b7100000000000000000000000000000000000000000000000000000000600052602260045260246000fd5b60006002820490506001821680610b5a57607f821691505b60208210811415610b6e57610b6d610b13565b5b50919050565b6000608082019050610b89600083018761096d565b610b96602083018661096d565b610ba3604083018561096d565b610bb0606083018461096d565b9594505050505056fea2646970667358221220698d820992de0a30473f40374170a98f78f1de4bbf85c838935a489ecaa853ba64736f6c634300080a0033a2646970667358221220a9c4bf5f3702e04cb5003f8769b3f8a340c4d4c23bd864ef90ac75c22e9809ad64736f6c634300080a0033",
  "immutableReferences": {},
  "source": "pragma solidity 0.8.10;\r\n\r\ncontract Bets{\r\n    address[] public bets;\r\n\r\n    address payable public owner;\r\n\r\n    constructor() public payable {\r\n        owner = payable(msg.sender);\r\n    }\r\n\r\n    function createBet(string memory description, uint256 votePrice, uint256 waitingTime, uint256 expirationTime, uint256 minBetterCount) public returns (address) {\r\n        Bet bet = new Bet(description, votePrice, waitingTime, expirationTime, minBetterCount, owner);\r\n        bets.push(address(bet));\r\n        return address(bet);\r\n    }\r\n\r\n    function getBetsCount() external view returns (uint256) {\r\n        return bets.length;\r\n    }\r\n}\r\n\r\ncontract Bet {\r\n    uint256 public deployTime = block.timestamp;\r\n    \r\n    enum State { Initiated, Pending, ForWon, AgainstWon, Aborted } //Bet states\r\n\r\n    // Address that receives a small percentage of all bets\r\n    address payable private taxAddress;\r\n    uint128 constant tax = 10;\r\n    \r\n    address payable[] private bettersForAddresses;\r\n    mapping (address => bool) private bettersFor;\r\n    function getBettersForCount() external view returns (uint256) {\r\n        return bettersForAddresses.length;\r\n    }\r\n    \r\n    address payable[] private bettersAgainstAddresses;\r\n    mapping (address => bool) private bettersAgainst;\r\n    function getBettersAgainstCount() external view returns (uint256) {\r\n         return bettersAgainstAddresses.length;\r\n    }\r\n\r\n    mapping (address => bool) outcomeVoters;\r\n    uint256 outcomeVotersCount;\r\n\r\n    uint256 public votersFromForCount;\r\n    uint256 public votersFromAgainstCount;\r\n    uint256 public votersForCount;\r\n    uint256 public votersAgainstCount;\r\n    \r\n    // Contract parameters\r\n    string public description;\r\n    uint256 public waitingTime;\r\n    uint256 public expirationTime;\r\n    uint256 public votePrice;\r\n    uint256 public minBetterCount;\r\n    \r\n    event BetUpdate (\r\n        uint256 _bettersFor,\r\n        uint256 _bettersAgainst,\r\n        uint256 _votersFor,\r\n        uint256 _votersAgainst\r\n    );\r\n    \r\n    constructor(string memory _description, uint256 _votePrice, uint256 _waitingTime, uint256 _expirationTime, uint256 _minBetterCount, address payable _taxAddress) public {\r\n        description = _description;\r\n        votePrice = _votePrice;\r\n        waitingTime = _waitingTime;\r\n        expirationTime = _expirationTime;\r\n        minBetterCount = _minBetterCount;\r\n        taxAddress = _taxAddress;\r\n    }\r\n\r\n    function getState() public view returns (State){\r\n        uint256 timeStamp = block.timestamp - deployTime;\r\n\r\n        if(timeStamp < waitingTime){\r\n            return State.Initiated;\r\n        }\r\n        else if(timeStamp >= waitingTime && timeStamp < expirationTime){\r\n            return State.Pending;\r\n        }\r\n        else if(timeStamp >= expirationTime){\r\n            if(votersForCount > votersAgainstCount){\r\n                return State.ForWon;\r\n            }\r\n            else if(votersForCount < votersAgainstCount){\r\n                return State.AgainstWon;\r\n            }\r\n            else{\r\n                return State.Aborted;\r\n            }\r\n        }\r\n        else{\r\n            return State.Aborted;\r\n        }\r\n    }\r\n\r\n    function betFor(uint256 amount) payable public {\r\n        require(msg.value == amount && msg.value == votePrice);\r\n        require(getState() == State.Initiated);\r\n        require(!bettersFor[msg.sender] && !bettersAgainst[msg.sender]);\r\n        bettersFor[msg.sender] = true;\r\n        bettersForAddresses.push(payable(msg.sender));\r\n        emit BetUpdate(bettersForAddresses.length, bettersAgainstAddresses.length, votersForCount, votersAgainstCount);\r\n    }\r\n\r\n    function betAgainst(uint256 amount) payable public {\r\n        require(msg.value == amount && msg.value == votePrice);\r\n        require(getState() == State.Initiated);\r\n        require(!bettersFor[msg.sender] && !bettersAgainst[msg.sender]);\r\n        bettersAgainst[msg.sender] = true;\r\n        bettersAgainstAddresses.push(payable(msg.sender));\r\n        emit BetUpdate(bettersForAddresses.length, bettersAgainstAddresses.length, votersForCount, votersAgainstCount);\r\n    }\r\n\r\n\r\n}\r\n\r\n",
  "sourcePath": "C:\\Users\\PC\\Documents\\University\\3 semestras\\Blockchain\\Smart-contract\\contracts\\Bets.sol",
  "compiler": {
    "name": "solc",
    "version": "0.8.10+commit.fc410830.Emscripten.clang"
  },
  "schemaVersion": "3.4.3",
  "updatedAt": "2021-12-11T10:44:37.880Z",
  "networkType": "ethereum",
  "devdoc": {
    "kind": "dev",
    "methods": {},
    "version": 1
  },
  "userdoc": {
    "kind": "user",
    "methods": {},
    "version": 1
  }
}