{
  "contractName": "Bets",
  "abi": [
    {
      "inputs": [],
      "stateMutability": "payable",
      "type": "constructor",
      "payable": true
    },
    {
      "inputs": [
        {
          "internalType": "uint256",
          "name": "",
          "type": "uint256"
        }
      ],
      "name": "bets",
      "outputs": [
        {
          "internalType": "address",
          "name": "",
          "type": "address"
        }
      ],
      "stateMutability": "view",
      "type": "function",
      "constant": true
    },
    {
      "inputs": [],
      "name": "owner",
      "outputs": [
        {
          "internalType": "address payable",
          "name": "",
          "type": "address"
        }
      ],
      "stateMutability": "view",
      "type": "function",
      "constant": true
    },
    {
      "inputs": [
        {
          "internalType": "string",
          "name": "description",
          "type": "string"
        },
        {
          "internalType": "uint256",
          "name": "votePrice",
          "type": "uint256"
        },
        {
          "internalType": "uint256",
          "name": "waitingTime",
          "type": "uint256"
        },
        {
          "internalType": "uint256",
          "name": "expirationTime",
          "type": "uint256"
        },
        {
          "internalType": "uint256",
          "name": "minBetterCount",
          "type": "uint256"
        }
      ],
      "name": "createBet",
      "outputs": [
        {
          "internalType": "address",
          "name": "",
          "type": "address"
        }
      ],
      "stateMutability": "nonpayable",
      "type": "function"
    },
    {
      "inputs": [],
      "name": "getBetsCount",
      "outputs": [
        {
          "internalType": "uint256",
          "name": "",
          "type": "uint256"
        }
      ],
      "stateMutability": "view",
      "type": "function",
      "constant": true
    }
  ],
  "bytecode": "0x608060405233600160006101000a81548173ffffffffffffffffffffffffffffffffffffffff021916908373ffffffffffffffffffffffffffffffffffffffff160217905550611801806100546000396000f3fe60806040523480156200001157600080fd5b5060043610620000525760003560e01c80631f796b57146200005757806322af00fa146200008d5780638c7e347a14620000c35780638da5cb5b14620000e5575b600080fd5b6200007560048036038101906200006f919062000412565b62000107565b604051620000849190620004fe565b60405180910390f35b620000ab6004803603810190620000a591906200051b565b620001e1565b604051620000ba9190620004fe565b60405180910390f35b620000cd62000221565b604051620000dc91906200055e565b60405180910390f35b620000ef6200022d565b604051620000fe9190620005a0565b60405180910390f35b6000808686868686600160009054906101000a900473ffffffffffffffffffffffffffffffffffffffff16604051620001409062000253565b620001519695949392919062000650565b604051809103906000f0801580156200016e573d6000803e3d6000fd5b5090506000819080600181540180825580915050600190039060005260206000200160009091909190916101000a81548173ffffffffffffffffffffffffffffffffffffffff021916908373ffffffffffffffffffffffffffffffffffffffff1602179055508091505095945050505050565b60008181548110620001f257600080fd5b906000526020600020016000915054906101000a900473ffffffffffffffffffffffffffffffffffffffff1681565b60008080549050905090565b600160009054906101000a900473ffffffffffffffffffffffffffffffffffffffff1681565b61110780620006c583390190565b6000604051905090565b600080fd5b600080fd5b600080fd5b600080fd5b6000601f19601f8301169050919050565b7f4e487b7100000000000000000000000000000000000000000000000000000000600052604160045260246000fd5b620002ca826200027f565b810181811067ffffffffffffffff82111715620002ec57620002eb62000290565b5b80604052505050565b60006200030162000261565b90506200030f8282620002bf565b919050565b600067ffffffffffffffff82111562000332576200033162000290565b5b6200033d826200027f565b9050602081019050919050565b82818337600083830152505050565b6000620003706200036a8462000314565b620002f5565b9050828152602081018484840111156200038f576200038e6200027a565b5b6200039c8482856200034a565b509392505050565b600082601f830112620003bc57620003bb62000275565b5b8135620003ce84826020860162000359565b91505092915050565b6000819050919050565b620003ec81620003d7565b8114620003f857600080fd5b50565b6000813590506200040c81620003e1565b92915050565b600080600080600060a086880312156200043157620004306200026b565b5b600086013567ffffffffffffffff81111562000452576200045162000270565b5b6200046088828901620003a4565b95505060206200047388828901620003fb565b94505060406200048688828901620003fb565b93505060606200049988828901620003fb565b9250506080620004ac88828901620003fb565b9150509295509295909350565b600073ffffffffffffffffffffffffffffffffffffffff82169050919050565b6000620004e682620004b9565b9050919050565b620004f881620004d9565b82525050565b6000602082019050620005156000830184620004ed565b92915050565b6000602082840312156200053457620005336200026b565b5b60006200054484828501620003fb565b91505092915050565b6200055881620003d7565b82525050565b60006020820190506200057560008301846200054d565b92915050565b60006200058882620004b9565b9050919050565b6200059a816200057b565b82525050565b6000602082019050620005b760008301846200058f565b92915050565b600081519050919050565b600082825260208201905092915050565b60005b83811015620005f9578082015181840152602081019050620005dc565b8381111562000609576000848401525b50505050565b60006200061c82620005bd565b620006288185620005c8565b93506200063a818560208601620005d9565b62000645816200027f565b840191505092915050565b600060c08201905081810360008301526200066c81896200060f565b90506200067d60208301886200054d565b6200068c60408301876200054d565b6200069b60608301866200054d565b620006aa60808301856200054d565b620006b960a08301846200058f565b97965050505050505056fe6080604052426000553480156200001557600080fd5b50604051620011073803806200110783398181016040528101906200003b9190620003aa565b85600c908051906020019062000053929190620000bd565b5084600f8190555083600d8190555082600e819055508160108190555080600160006101000a81548173ffffffffffffffffffffffffffffffffffffffff021916908373ffffffffffffffffffffffffffffffffffffffff160217905550505050505050620004ca565b828054620000cb9062000494565b90600052602060002090601f016020900481019282620000ef57600085556200013b565b82601f106200010a57805160ff19168380011785556200013b565b828001600101855582156200013b579182015b828111156200013a5782518255916020019190600101906200011d565b5b5090506200014a91906200014e565b5090565b5b80821115620001695760008160009055506001016200014f565b5090565b6000604051905090565b600080fd5b600080fd5b600080fd5b600080fd5b6000601f19601f8301169050919050565b7f4e487b7100000000000000000000000000000000000000000000000000000000600052604160045260246000fd5b620001d6826200018b565b810181811067ffffffffffffffff82111715620001f857620001f76200019c565b5b80604052505050565b60006200020d6200016d565b90506200021b8282620001cb565b919050565b600067ffffffffffffffff8211156200023e576200023d6200019c565b5b62000249826200018b565b9050602081019050919050565b60005b838110156200027657808201518184015260208101905062000259565b8381111562000286576000848401525b50505050565b6000620002a36200029d8462000220565b62000201565b905082815260208101848484011115620002c257620002c162000186565b5b620002cf84828562000256565b509392505050565b600082601f830112620002ef57620002ee62000181565b5b8151620003018482602086016200028c565b91505092915050565b6000819050919050565b6200031f816200030a565b81146200032b57600080fd5b50565b6000815190506200033f8162000314565b92915050565b600073ffffffffffffffffffffffffffffffffffffffff82169050919050565b6000620003728262000345565b9050919050565b620003848162000365565b81146200039057600080fd5b50565b600081519050620003a48162000379565b92915050565b60008060008060008060c08789031215620003ca57620003c962000177565b5b600087015167ffffffffffffffff811115620003eb57620003ea6200017c565b5b620003f989828a01620002d7565b96505060206200040c89828a016200032e565b95505060406200041f89828a016200032e565b94505060606200043289828a016200032e565b93505060806200044589828a016200032e565b92505060a06200045889828a0162000393565b9150509295509295509295565b7f4e487b7100000000000000000000000000000000000000000000000000000000600052602260045260246000fd5b60006002820490506001821680620004ad57607f821691505b60208210811415620004c457620004c362000465565b5b50919050565b610c2d80620004da6000396000f3fe6080604052600436106100f35760003560e01c8063b59988bf1161008a578063e071fc1f11610059578063e071fc1f146102fc578063ee177f8b14610318578063f82b91f414610343578063ff549cc21461035f576100f3565b8063b59988bf14610250578063d03b13f51461027b578063d9e2b73f146102a6578063da284dcc146102d1576100f3565b80637a40624b116100c65780637a40624b146101a4578063860c851a146101cf5780639958fc96146101fa578063aa13e8c214610225576100f3565b806312065fe0146100f85780631865c57d146101235780635193372e1461014e5780637284e41614610179575b600080fd5b34801561010457600080fd5b5061010d61038a565b60405161011a9190610928565b60405180910390f35b34801561012f57600080fd5b50610138610392565b60405161014591906109ba565b60405180910390f35b34801561015a57600080fd5b50610163610423565b6040516101709190610928565b60405180910390f35b34801561018557600080fd5b5061018e610430565b60405161019b9190610a6e565b60405180910390f35b3480156101b057600080fd5b506101b96104be565b6040516101c69190610928565b60405180910390f35b3480156101db57600080fd5b506101e46104c4565b6040516101f19190610928565b60405180910390f35b34801561020657600080fd5b5061020f6104ca565b60405161021c9190610928565b60405180910390f35b34801561023157600080fd5b5061023a6104d0565b6040516102479190610928565b60405180910390f35b34801561025c57600080fd5b506102656104d6565b6040516102729190610928565b60405180910390f35b34801561028757600080fd5b506102906104dc565b60405161029d9190610928565b60405180910390f35b3480156102b257600080fd5b506102bb6104e9565b6040516102c89190610928565b60405180910390f35b3480156102dd57600080fd5b506102e66104ef565b6040516102f39190610928565b60405180910390f35b61031660048036038101906103119190610ac1565b6104f5565b005b34801561032457600080fd5b5061032d6106fc565b60405161033a9190610928565b60405180910390f35b61035d60048036038101906103589190610ac1565b610702565b005b34801561036b57600080fd5b50610374610909565b6040516103819190610928565b60405180910390f35b600047905090565b600080600054426103a39190610b1d565b9050600d548110156103b9576000915050610420565b600d5481101580156103cc5750600e5481105b156103db576001915050610420565b600e54811061041a57600b54600a5411156103fa576002915050610420565b600b54600a541015610410576003915050610420565b6004915050610420565b60049150505b90565b6000600480549050905090565b600c805461043d90610b80565b80601f016020809104026020016040519081016040528092919081815260200182805461046990610b80565b80156104b65780601f1061048b576101008083540402835291602001916104b6565b820191906000526020600020905b81548152906001019060200180831161049957829003601f168201915b505050505081565b60005481565b600f5481565b600a5481565b600d5481565b60105481565b6000600280549050905090565b60095481565b600e5481565b80341480156105055750600f5434145b61050e57600080fd5b6000600481111561052257610521610943565b5b61052a610392565b600481111561053c5761053b610943565b5b1461054657600080fd5b600360003373ffffffffffffffffffffffffffffffffffffffff1673ffffffffffffffffffffffffffffffffffffffff16815260200190815260200160002060009054906101000a900460ff161580156105ea5750600560003373ffffffffffffffffffffffffffffffffffffffff1673ffffffffffffffffffffffffffffffffffffffff16815260200190815260200160002060009054906101000a900460ff16155b6105f357600080fd5b6001600360003373ffffffffffffffffffffffffffffffffffffffff1673ffffffffffffffffffffffffffffffffffffffff16815260200190815260200160002060006101000a81548160ff0219169083151502179055506002339080600181540180825580915050600190039060005260206000200160009091909190916101000a81548173ffffffffffffffffffffffffffffffffffffffff021916908373ffffffffffffffffffffffffffffffffffffffff1602179055507fde51fb9043f707b6b8a48720a9d358135b5f6bdb4549ce5817cb7fed82c68ab7600280549050600480549050600a54600b546040516106f19493929190610bb2565b60405180910390a150565b600b5481565b80341480156107125750600f5434145b61071b57600080fd5b6000600481111561072f5761072e610943565b5b610737610392565b600481111561074957610748610943565b5b1461075357600080fd5b600360003373ffffffffffffffffffffffffffffffffffffffff1673ffffffffffffffffffffffffffffffffffffffff16815260200190815260200160002060009054906101000a900460ff161580156107f75750600560003373ffffffffffffffffffffffffffffffffffffffff1673ffffffffffffffffffffffffffffffffffffffff16815260200190815260200160002060009054906101000a900460ff16155b61080057600080fd5b6001600560003373ffffffffffffffffffffffffffffffffffffffff1673ffffffffffffffffffffffffffffffffffffffff16815260200190815260200160002060006101000a81548160ff0219169083151502179055506004339080600181540180825580915050600190039060005260206000200160009091909190916101000a81548173ffffffffffffffffffffffffffffffffffffffff021916908373ffffffffffffffffffffffffffffffffffffffff1602179055507fde51fb9043f707b6b8a48720a9d358135b5f6bdb4549ce5817cb7fed82c68ab7600280549050600480549050600a54600b546040516108fe9493929190610bb2565b60405180910390a150565b60085481565b6000819050919050565b6109228161090f565b82525050565b600060208201905061093d6000830184610919565b92915050565b7f4e487b7100000000000000000000000000000000000000000000000000000000600052602160045260246000fd5b6005811061098357610982610943565b5b50565b600081905061099482610972565b919050565b60006109a482610986565b9050919050565b6109b481610999565b82525050565b60006020820190506109cf60008301846109ab565b92915050565b600081519050919050565b600082825260208201905092915050565b60005b83811015610a0f5780820151818401526020810190506109f4565b83811115610a1e576000848401525b50505050565b6000601f19601f8301169050919050565b6000610a40826109d5565b610a4a81856109e0565b9350610a5a8185602086016109f1565b610a6381610a24565b840191505092915050565b60006020820190508181036000830152610a888184610a35565b905092915050565b600080fd5b610a9e8161090f565b8114610aa957600080fd5b50565b600081359050610abb81610a95565b92915050565b600060208284031215610ad757610ad6610a90565b5b6000610ae584828501610aac565b91505092915050565b7f4e487b7100000000000000000000000000000000000000000000000000000000600052601160045260246000fd5b6000610b288261090f565b9150610b338361090f565b925082821015610b4657610b45610aee565b5b828203905092915050565b7f4e487b7100000000000000000000000000000000000000000000000000000000600052602260045260246000fd5b60006002820490506001821680610b9857607f821691505b60208210811415610bac57610bab610b51565b5b50919050565b6000608082019050610bc76000830187610919565b610bd46020830186610919565b610be16040830185610919565b610bee6060830184610919565b9594505050505056fea26469706673582212208985c8ec0ed2bef63fce6a50565aa6492239c5f3812491a23d6af9526bc6ca6d64736f6c634300080a0033a26469706673582212200de5d595e2ac7bcfc10b53d6fbfbf72f80e91868adf484cb49b6b000d25bdd4064736f6c634300080a0033",
  "immutableReferences": {},
  "source": "pragma solidity 0.8.10;\r\n\r\ncontract Bets{\r\n    address[] public bets;\r\n\r\n    address payable public owner;\r\n\r\n    constructor() public payable {\r\n        owner = payable(msg.sender);\r\n    }\r\n\r\n    function createBet(string memory description, uint256 votePrice, uint256 waitingTime, uint256 expirationTime, uint256 minBetterCount) public returns (address) {\r\n        Bet bet = new Bet(description, votePrice, waitingTime, expirationTime, minBetterCount, owner);\r\n        bets.push(address(bet));\r\n        return address(bet);\r\n    }\r\n\r\n    function getBetsCount() external view returns (uint256) {\r\n        return bets.length;\r\n    }\r\n}\r\n\r\ncontract Bet {\r\n    uint256 public deployTime = block.timestamp;\r\n    \r\n    enum State { Initiated, Pending, ForWon, AgainstWon, Aborted } //Bet states\r\n\r\n    // Address that receives a small percentage of all bets\r\n    address payable private taxAddress;\r\n    uint128 constant tax = 10;\r\n    \r\n    address payable[] private bettersForAddresses;\r\n    mapping (address => bool) private bettersFor;\r\n    function getBettersForCount() external view returns (uint256) {\r\n        return bettersForAddresses.length;\r\n    }\r\n    \r\n    address payable[] private bettersAgainstAddresses;\r\n    mapping (address => bool) private bettersAgainst;\r\n    function getBettersAgainstCount() external view returns (uint256) {\r\n         return bettersAgainstAddresses.length;\r\n    }\r\n\r\n    mapping (address => bool) outcomeVoters;\r\n    uint256 outcomeVotersCount;\r\n\r\n    uint256 public votersFromForCount;\r\n    uint256 public votersFromAgainstCount;\r\n    uint256 public votersForCount;\r\n    uint256 public votersAgainstCount;\r\n    \r\n    // Contract parameters\r\n    string public description;\r\n    uint256 public waitingTime;\r\n    uint256 public expirationTime;\r\n    uint256 public votePrice;\r\n    uint256 public minBetterCount;\r\n    \r\n    event BetUpdate (\r\n        uint256 _bettersFor,\r\n        uint256 _bettersAgainst,\r\n        uint256 _votersFor,\r\n        uint256 _votersAgainst\r\n    );\r\n    \r\n    constructor(string memory _description, uint256 _votePrice, uint256 _waitingTime, uint256 _expirationTime, uint256 _minBetterCount, address payable _taxAddress) public {\r\n        description = _description;\r\n        votePrice = _votePrice;\r\n        waitingTime = _waitingTime;\r\n        expirationTime = _expirationTime;\r\n        minBetterCount = _minBetterCount;\r\n        taxAddress = _taxAddress;\r\n    }\r\n\r\n    function getState() public view returns (State){\r\n        uint256 timeStamp = block.timestamp - deployTime;\r\n\r\n        if(timeStamp < waitingTime){\r\n            return State.Initiated;\r\n        }\r\n        else if(timeStamp >= waitingTime && timeStamp < expirationTime){\r\n            return State.Pending;\r\n        }\r\n        else if(timeStamp >= expirationTime){\r\n            if(votersForCount > votersAgainstCount){\r\n                return State.ForWon;\r\n            }\r\n            else if(votersForCount < votersAgainstCount){\r\n                return State.AgainstWon;\r\n            }\r\n            else{\r\n                return State.Aborted;\r\n            }\r\n        }\r\n        else{\r\n            return State.Aborted;\r\n        }\r\n    }\r\n\r\n    function getBalance() external view returns(uint256) {\r\n        return address(this).balance;\r\n    }\r\n\r\n    function betFor(uint256 amount) payable public {\r\n        require(msg.value == amount && msg.value == votePrice);\r\n        require(getState() == State.Initiated);\r\n        require(!bettersFor[msg.sender] && !bettersAgainst[msg.sender]);\r\n        bettersFor[msg.sender] = true;\r\n        bettersForAddresses.push(payable(msg.sender));\r\n        emit BetUpdate(bettersForAddresses.length, bettersAgainstAddresses.length, votersForCount, votersAgainstCount);\r\n    }\r\n\r\n    function betAgainst(uint256 amount) payable public {\r\n        require(msg.value == amount && msg.value == votePrice);\r\n        require(getState() == State.Initiated);\r\n        require(!bettersFor[msg.sender] && !bettersAgainst[msg.sender]);\r\n        bettersAgainst[msg.sender] = true;\r\n        bettersAgainstAddresses.push(payable(msg.sender));\r\n        emit BetUpdate(bettersForAddresses.length, bettersAgainstAddresses.length, votersForCount, votersAgainstCount);\r\n    }\r\n\r\n\r\n}\r\n\r\n",
  "sourcePath": "C:\\Users\\PC\\Documents\\University\\3 semestras\\Blockchain\\Smart-contract\\contracts\\Bets.sol",
  "compiler": {
    "name": "solc",
    "version": "0.8.10+commit.fc410830.Emscripten.clang"
  },
  "schemaVersion": "3.4.3",
  "updatedAt": "2021-12-12T17:52:05.866Z",
  "networkType": "ethereum",
  "devdoc": {
    "kind": "dev",
    "methods": {},
    "version": 1
  },
  "userdoc": {
    "kind": "user",
    "methods": {},
    "version": 1
  }
}